:100000000C9434000C9451000C9451000C94510049
:100010000C9451000C9451000C9451000C9451001C
:100020000C9451000C9451000C9451000C94DD0080
:100030000C9451000C9451000C9451000C945100FC
:100040000C9451000C9451000C94EC000C94510051
:100050000C9451000C9451000C9451000C945100DC
:100060000C9451000C94510011241FBECFEFD8E026
:10007000DEBFCDBF12E0A0E0B1E0EAEAFEE002C0E0
:1000800005900D92A237B107D9F723E0A2E7B2E0BD
:1000900001C01D92AA31B207E1F70E9497010C94AA
:1000A00053070C94000087B1816087B988B18E7FB7
:1000B00088B92FE788E391E0215080409040E1F734
:1000C00000C0000088B1816088B987B18E7F87B990
:1000D0003099FECF309BFECF3099FECF089580E05F
:1000E00020E014C0309BFECF90E005C035E03A958B
:1000F000F1F700009F5F3099F9CF993228F090E036
:10010000880F991F816001C0880F2F5F283050F33E
:1001100008958F929F92AF92BF92CF92DF92EF920B
:10012000FF920F931F93CF93DF934C015B016A0102
:100130007901F8940E9453000E946F00C5E7D2E055
:1001400088830E946F0089830E946F0007E712E096
:10015000D8018C930E946F00F80181830E946F0088
:1001600080937902D8013C9111968C9128819981D4
:10017000830F820F890F78949091790289130FC0B1
:10018000F8018081D4018C938181F501808388817D
:10019000D6018C938981F701808381E001C080E0E2
:1001A000DF91CF911F910F91FF90EF90DF90CF9053
:1001B000BF90AF909F908F9008951F920F920FB6AF
:1001C0000F9211248F9381E0809373028F910F908F
:1001D0000FBE0F901F9018951F920F920FB60F929F
:1001E00011242F933F934F935F936F937F938F933C
:1001F0009F93AF93BF93EF93FF938091C60080933B
:10020000740280917402833721F0809174028335E7
:1002100091F480910001811108C081E08093000178
:1002200081E091E00E94870206C01092000183E302
:1002300091E00E948702FF91EF91BF91AF919F9152
:100240008F917F916F915F914F913F912F910F907F
:100250000FBE0F901F901895AF92BF92CF92DF9272
:10026000EF92FF920F931F93CF93DF9300D000D0B4
:10027000CDB7DEB78C016B015A01790143E050E044
:10028000BC01CE0101960E9438041C82BE016F5F42
:100290007F4F8CEC91E00E9447048C5C914063E0BE
:1002A00070E00E94F2036F5FF5016083C80104965D
:1002B0000E941A04F6018083C80107960E941A045E
:1002C000805DF70180830F900F900F900F90DF916A
:1002D000CF911F910F91FF90EF90DF90CF90BF9043
:1002E000AF900895CF92DF92EF92FF920F931F93FA
:1002F000CF93DF93EC016B017A0189010E941A040C
:10030000F6018083CE0103960E941A04F7018083D0
:10031000CE0106960E941A04F8018083DF91CF91E6
:100320001F910F91FF90EF90DF90CF900895CF93A2
:10033000DF9300D000D000D0CDB7DEB70E94A3027B
:1003400087E60E9463020E946D020E9473020E946F
:1003500079020E94B8029E012F5F3F4FAE014E5FAF
:100360005F4FBE016D5F7F4F81EF91E00E942C01D6
:100370009E012A5F3F4FAE014B5F5F4FBE016C5F36
:100380007F4F8DEF91E00E94720185EA91E00E941B
:10039000870284E691E00E9487028E810E942B03EF
:1003A000E82E8D810E942B03082F8C810E942B0345
:1003B000D82E8B810E942B03F82E8A810E942B035A
:1003C000182F89810E942B032D2D4F2D612F0E9404
:1003D0003E03789480917302882311F12AE732E07A
:1003E00045E153E069E173E08BE792E00E94890008
:1003F00080937902CE0106967C018E010B5F1F4F20
:100400009E012C5F3F4F48E153E0BE016E5F7F4F7E
:1004100005970E948E031092730281E0809372020E
:10042000809100018823B1F280917202882391F2B9
:10043000809179028130B9F58E811F928F938D81E1
:100440001F928F938C811F928F9389811F928F931C
:100450008A811F928F93809118031F928F938091AE
:100460007A021F928F93809115031F928F93809130
:1004700019031F928F9380917B021F928F9386E0C6
:1004800092E09F938F938DE792E09F938F930E94CA
:1004900069048DE792E00E9487020FB6F894DEBFF0
:1004A0000FBECDBF0DC089E1E9E5F2E0ADE7B2E0F6
:1004B00001900D928A95E1F78DE792E00E94870204
:1004C0001092720287CF1092C10096E09093C20002
:1004D0001092C5008093C4000895E1ECF0E08081A3
:1004E000886080830895E1ECF0E080818061808302
:1004F0000895E1ECF0E08081806880830895809128
:10050000C00085FFFCCF08958093C6000895EF9248
:10051000FF920F931F93CF937C01C0E007C00E940E
:100520007F02F80180810E948402CF5F87010C0F57
:10053000111DF80180818111F2CFCF911F910F9190
:10054000FF90EF900895E1E8F0E08081886080837B
:1005500080818560808381E19AE790938900809310
:100560008800EFE6F0E080818260808378940895CF
:10057000E9EBF0E080818E7F808380818D7F8083B6
:1005800081E18093B800E4E6F0E080818F7780839A
:10059000089584EA8093BC008091BC008823E4F72E
:1005A0008091B900887F883011F480E0089581E05F
:1005B000089584EA8093BC008091BC008823E4F70E
:1005C0008091B900887F803111F480E0089581E046
:1005D0000895ECEBF0E08081846980830895880FB2
:1005E000662319F0816020E401C028E18093BB00FC
:1005F00084E88093BC008091BC008823E4F780915C
:10060000B900887F90E030E08217930711F480E012
:10061000089581E008958093BB0084E88093BC0036
:100620008091BC008823E4F78091B900887F8832EC
:1006300011F081E0089580E0089520E4829FC001D8
:10064000112484688093BC008091BC008823E4F767
:100650008091BB0008959DEC899F912D1124969562
:1006600096959695392F330F232F220F220F230FA4
:10067000821B20E1929F800D11240895EF92FF923A
:100680000F931F93CF93DF93F82E162FD42FC22FE3
:100690000E94C9028111FCCF60E088E60E94EF024F
:1006A0008111FACF80E00E940B038111FBCF8E2DC8
:1006B0000E940B038111FBCF802F0E940B0381113D
:1006C000FBCF8C2F0E940B038111FBCF81E00E9496
:1006D0000B038111FBCF8D2F0E940B038111FBCFE8
:1006E000812F0E940B038111FBCF8F2D0E940B03E2
:1006F0008111FBCF0E94E902DF91CF911F910F91F1
:10070000FF90EF900895982F92959F70990F292F41
:10071000220F220F920F8F70890F08958F929F9250
:10072000AF92BF92CF92DF92EF92FF920F931F93FF
:10073000CF93DF93EC016B015A0149010E94C9027A
:100740008111FCCF60E088E60E94EF028111FACFB0
:1007500080E00E940B038111FBCF0E94D90281111E
:10076000FCCF61E088E60E94EF028111FACF81E0C0
:100770000E941D030E948303F701808381E00E9491
:100780001D030E948303F801808381E00E941D0302
:100790000E948303F401808381E00E941D0381E0B5
:1007A0000E941D030E948303F501808381E00E9463
:1007B0001D030E948303F601808380E00E941D03D5
:1007C0000E94830388830E94E902DF91CF911F91E9
:1007D0000F91FF90EF90DF90CF90BF90AF909F90E0
:1007E0008F90089597FB072E16F4009407D077FD9D
:1007F00009D00E94060407FC05D03EF4909581952F
:100800009F4F0895709561957F4F0895AA1BBB1B5C
:1008100051E107C0AA1FBB1FA617B70710F0A61B00
:10082000B70B881F991F5A95A9F780959095BC0121
:10083000CD010895FC0188279927E8942191203261
:10084000E9F3293010F02E30C8F32B3241F02D326D
:1008500039F4689404C00E946104820F911D2191B3
:1008600020532A30C0F31EF4909581959F4F089530
:10087000FB01DC014150504048F001900D920020F6
:10088000C9F701C01D9241505040E0F70895FB01A7
:1008900051915523A9F0BF01DC014D91451741113C
:1008A000E1F759F4CD010190002049F04D91401538
:1008B0004111C9F3FB014111EFCF81E090E00197B5
:1008C00008957AE0979F902D879F802D910D112498
:1008D0000895AEE0B0E0EFE6F4E00C942A070D894D
:1008E0001E8986E08C831A8309838FEF9FE79E839E
:1008F0008D83AE01475E5F4F6F89788DCE01019683
:100900000E948B04EF81F885E00FF11F10822E9674
:10091000E4E00C944607ABE0B0E0E1E9F4E00C94CD
:100920001C076C017B018A01FC01178216828381FE
:1009300081FFCCC1CE0101963C01F6019381F70104
:1009400093FD859193FF81917F01882309F4BAC1BA
:10095000853239F493FD859193FF81917F01853232
:1009600029F4B60190E00E948206E7CF912C212C59
:10097000312CFFE1F315D8F08B3279F038F4803266
:1009800079F08332A1F4232D20611DC08D3261F0F6
:10099000803369F4232D216016C0832D8260382EA8
:1009A000E32DE4603E2E2AC0F32DF8601DC037FC15
:1009B0002DC020ED280F2A3040F08E32B9F436FCDD
:1009C00081C1232D2064322E19C036FE06C08AE074
:1009D000989E200D1124922E11C0EAE02E9E200D2B
:1009E0001124222EF32DF0623F2E08C08C3621F404
:1009F000832D8068382E02C0883641F4F70193FDBC
:100A0000859193FF81917F018111B3CF982F9F7DB5
:100A10009554933028F40C5F1F4F9FE399830DC0CA
:100A2000833631F0833771F0833509F059C021C026
:100A3000F801808189830E5F1F4F88248394912C55
:100A4000530113C02801F2E04F0E511CF801A080A1
:100A5000B18036FE03C0692D70E002C06FEF7FEFFA
:100A6000C5010E9477064C018201F32DFF773F2ECE
:100A700016C0280122E0420E511CF801A080B1806E
:100A800036FE03C0692D70E002C06FEF7FEFC50135
:100A90000E946C064C01F32DF0683F2E820133FC5E
:100AA0001BC0822D90E088169906B0F4B60180E252
:100AB00090E00E9482062A94F4CFF50137FC8591DC
:100AC00037FE81915F01B60190E00E9482062110FD
:100AD0002A9421E0821A91088114910471F7E8C0E8
:100AE000843611F0893641F5F80137FE07C0608180
:100AF0007181828193810C5F1F4F08C06081718179
:100B0000072E000C880B990B0E5F1F4FF32DFF76FD
:100B10003F2E97FF09C090958095709561957F4F06
:100B20008F4F9F4FF0683F2E2AE030E0A3010E94D4
:100B3000BE06882E861845C0853731F4232D2F7EBA
:100B4000B22E2AE030E025C0932D997FB92E8F3642
:100B5000C1F018F4883579F0B5C0803719F08837BE
:100B600021F0B0C0E92FE061BE2EB4FE0DC0FB2D18
:100B7000F460BF2E09C034FE0AC0292F2660B22EB1
:100B800006C028E030E005C020E130E002C020E1EE
:100B900032E0F801B7FE07C06081718182819381E4
:100BA0000C5F1F4F06C06081718180E090E00E5F96
:100BB0001F4FA3010E94BE06882E8618FB2DFF77CB
:100BC0003F2E36FE0DC0232D2E7FA22E891458F401
:100BD00034FE0BC032FC09C0832D8E7EA82E05C0CA
:100BE000B82CA32C03C0B82C01C0B92CA4FE0FC094
:100BF000FE01E80DF11D8081803321F49A2D997E4C
:100C0000A92E09C0A2FE06C0B394B39404C08A2DD5
:100C1000867809F0B394A3FC11C0A0FE06C0B214FC
:100C200088F4280C922C9B180EC0B21460F4B60104
:100C300080E290E00E948206B394F7CFB21418F4D9
:100C40002B1802C0982C212CA4FE10C0B60180E302
:100C500090E00E948206A2FE17C0A1FC03C088E7B4
:100C600090E002C088E590E0B6010CC08A2D86783D
:100C700059F0A1FE02C08BE201C080E2A7FC8DE228
:100C8000B60190E00E948206891438F4B60180E330
:100C900090E00E9482069A94F7CF8A94F301E80DBF
:100CA000F11D8081B60190E00E9482068110F5CF8F
:100CB000222009F442CEB60180E290E00E94820632
:100CC0002A94F6CFF6018681978102C08FEF9FEFBD
:100CD0002B96E2E10C943807FC01059061507040BE
:100CE0000110D8F7809590958E0F9F1F0895FC01F5
:100CF0006150704001900110D8F7809590958E0F4B
:100D00009F1F08950F931F93CF93DF93FB012381C0
:100D100021FD03C08FEF9FEF2CC022FF16C046813C
:100D20005781248135814217530744F4A081B18152
:100D30009D012F5F3F4F318320838C932681378124
:100D40002F5F3F4F3783268314C08B01EC01FB01DB
:100D50000084F185E02D0995892BE1F6D8011696DE
:100D60008D919C911797019617969C938E93169749
:100D7000CE01DF91CF911F910F910895FA01AA271B
:100D8000283051F1203181F1E8946F936E7F6E5FCE
:100D90007F4F8F4F9F4FAF4FB1E03ED0B4E03CD07C
:100DA000670F781F891F9A1FA11D680F791F8A1F5F
:100DB000911DA11D6A0F711D811D911DA11D20D0C6
:100DC00009F468943F912AE0269F11243019305D80
:100DD0003193DEF6CF010895462F4770405D419371
:100DE000B3E00FD0C9F7F6CF462F4F70405D4A33BE
:100DF00018F0495D31FD4052419302D0A9F7EACF86
:100E0000B4E0A6959795879577956795BA95C9F7B4
:100E100000976105710508959B01AC010A2E0694A7
:100E20005795479537952795BA95C9F7620F731F60
:100E3000841F951FA01D08952F923F924F925F929D
:100E40006F927F928F929F92AF92BF92CF92DF92DA
:100E5000EF92FF920F931F93CF93DF93CDB7DEB73F
:100E6000CA1BDB0B0FB6F894DEBF0FBECDBF0994D3
:100E70002A88398848885F846E847D848C849B842A
:100E8000AA84B984C884DF80EE80FD800C811B8138
:100E9000AA81B981CE0FD11D0FB6F894DEBF0FBE67
:0A0EA000CDBFED010895F894FFCFD7
:100EAA0001526567697374726F207265616E756449
:100EBA0061646F2E20506172612070617573617276
:100ECA002070726573696F6E65202753272E200A7A
:100EDA000D0D00526567697374726F2070617573C6
:100EEA0061646F2E2050617261207265616E756453
:100EFA0061722070726573696F6E65202753272EA1
:100F0A00200A0D0053692064657365612064657465
:100F1A00656E6572206F207265616E7564617220FC
:100F2A00656C20726567697374726F20707265737D
:100F3A00696F6E65206C61207465636C612027534C
:100F4A0027200A0D005245474953545241444F52F3
:100F5A002044452054454D50455241545552412054
:100F6A00592048554D454441440A0D004A616E4690
:100F7A0065624D61724170724D61794A756E4A754A
:100F8A006C4175675365704F63744E6F7644656341
:100F9A00004A756E20313920323032340031363A07
:100FAA0034373A32360054454D503A253032642EA1
:100FBA002530326420B0432048554D3A25303264FA
:100FCA002E253032642025255248200D46454348B7
:100FDA00413A20253032642F253032642F2532647D
:100FEA0020484F52413A20253032643A2530326443
:100FFA003A25303264200D0D004572726F722064FA
:10100A0065207472616E736D6973696F6E2E200D3F
:02101A000D00C7
:00000001FF
